{
  "contractName": "at1Contract",
  "abi": [
    {
      "inputs": [],
      "stateMutability": "nonpayable",
      "type": "constructor"
    },
    {
      "inputs": [],
      "name": "onlyOwner",
      "outputs": [],
      "stateMutability": "nonpayable",
      "type": "function"
    }
  ],
  "bytecode": "0x60a060405234801561001057600080fd5b503360805260805160e861002d60003960006037015260e86000f3fe6080604052348015600f57600080fd5b506004361060285760003560e01c80631036e0a814602d575b600080fd5b60336035565b005b7f00000000000000000000000000000000000000000000000000000000000000006001600160a01b0316331460b05760405162461bcd60e51b815260206004820152601a60248201527f596f75206172656e2774206f776e657220636f6e747261637421000000000000604482015260640160405180910390fd5b56fea26469706673582212203cb9d359ccbe3d4dfef8e89b5496f2cf147d9d4c294d97e5701ada7355a7dad864736f6c63430008130033",
  "immutableReferences": {
    "3": [
      {
        "length": 32,
        "start": 55
      }
    ]
  },
  "source": "// SPDX-License-Identifier: MIT\r\n\r\npragma solidity ^0.8.19;\r\n\r\ncontract at1Contract {\r\n\r\n    address private immutable owner; // Endereço da carteira do Dono do contrato!\r\n\r\n    constructor() {\r\n        owner = msg.sender; // => Quem fez a chamada!\r\n    }\r\n\r\n    function onlyOwner() public {\r\n\r\n        require(owner == msg.sender, \"You aren't owner contract!\"); // Se quem chamou a função for o owner, ok!\r\n\r\n    }\r\n\r\n}",
  "sourcePath": "C:\\Users\\lcosta\\Downloads\\Blockchain\\Codes\\Atividade - 1\\contracts\\at1Contract.sol",
  "compiler": {
    "name": "solc",
    "version": "0.8.19+commit.7dd6d404.Emscripten.clang"
  },
  "schemaVersion": "3.4.13",
  "updatedAt": "2023-03-07T19:06:31.322Z",
  "devdoc": {
    "kind": "dev",
    "methods": {},
    "version": 1
  },
  "userdoc": {
    "kind": "user",
    "methods": {},
    "version": 1
  }
}