{
  "contractName": "at4Contract",
  "abi": [
    {
      "inputs": [
        {
          "internalType": "uint256",
          "name": "newIntegerNumber",
          "type": "uint256"
        }
      ],
      "name": "setIntegerNumber",
      "outputs": [],
      "stateMutability": "nonpayable",
      "type": "function"
    }
  ],
  "bytecode": "0x6080604052600a600055348015601457600080fd5b50608d806100236000396000f3fe6080604052348015600f57600080fd5b506004361060285760003560e01c806333542aed14602d575b600080fd5b603d6038366004603f565b600055565b005b600060208284031215605057600080fd5b503591905056fea264697066735822122069ad9540ab77fa4508ebfd09f8e11b477815e8624c527a1f10e129446487ac0c64736f6c63430008130033",
  "immutableReferences": {},
  "source": "// SPDX-License-Identifier: MIT\r\n\r\npragma solidity ^0.8.19;\r\n\r\ncontract at4Contract {\r\n\r\n    uint private integerNumber = 10;\r\n\r\n    function setIntegerNumber(uint newIntegerNumber) public {\r\n        integerNumber = newIntegerNumber;\r\n    }\r\n    \r\n}",
  "sourcePath": "C:\\Users\\lcosta\\Downloads\\Blockchain\\Blockchain-Training\\Atividade - 4\\contracts\\at4Contract.sol",
  "compiler": {
    "name": "solc",
    "version": "0.8.19+commit.7dd6d404.Emscripten.clang"
  },
  "schemaVersion": "3.4.13",
  "updatedAt": "2023-03-08T18:19:25.336Z",
  "networkType": "ethereum",
  "devdoc": {
    "kind": "dev",
    "methods": {},
    "version": 1
  },
  "userdoc": {
    "kind": "user",
    "methods": {},
    "version": 1
  }
}