{
  "contractName": "at4Contract",
  "abi": [
    {
      "inputs": [],
      "name": "retornaNumeroView",
      "outputs": [
        {
          "internalType": "uint256",
          "name": "",
          "type": "uint256"
        }
      ],
      "stateMutability": "view",
      "type": "function",
      "constant": true
    },
    {
      "inputs": [
        {
          "internalType": "uint256",
          "name": "a",
          "type": "uint256"
        },
        {
          "internalType": "uint256",
          "name": "b",
          "type": "uint256"
        }
      ],
      "name": "retornaNumero",
      "outputs": [
        {
          "internalType": "uint256",
          "name": "",
          "type": "uint256"
        }
      ],
      "stateMutability": "pure",
      "type": "function",
      "constant": true
    }
  ],
  "bytecode": "0x6080604052600a60005534801561001557600080fd5b5060e9806100246000396000f3fe6080604052348015600f57600080fd5b506004361060325760003560e01c80634b5e60e31460375780634d1a4acb146058575b600080fd5b604660423660046072565b605f565b60405190815260200160405180910390f35b6000546046565b6000606982846093565b90505b92915050565b60008060408385031215608457600080fd5b50508035926020909101359150565b80820180821115606c57634e487b7160e01b600052601160045260246000fdfea2646970667358221220a1ff30703c4e06b11d770292ab2e298ba3808f627253b40cdb2e670b604b6dd064736f6c63430008130033",
  "immutableReferences": {},
  "source": "// SPDX-License-Identifier: MIT\r\n\r\npragma solidity ^0.8.19;\r\n\r\ncontract at4Contract {\r\n\r\n    uint numero = 10;\r\n\r\n    function retornaNumeroView() external view returns(uint) {\r\n        return numero;\r\n    }\r\n\r\n    function retornaNumero(uint a, uint b) external pure returns(uint) {\r\n        return a + b;\r\n    }\r\n    \r\n}",
  "sourcePath": "C:\\Users\\lcosta\\Downloads\\Blockchain\\Blockchain-Training\\Atividade - 4\\contracts\\at4Contract.sol",
  "compiler": {
    "name": "solc",
    "version": "0.8.19+commit.7dd6d404.Emscripten.clang"
  },
  "schemaVersion": "3.4.13",
  "updatedAt": "2023-03-09T13:50:36.922Z",
  "networkType": "ethereum",
  "devdoc": {
    "kind": "dev",
    "methods": {},
    "version": 1
  },
  "userdoc": {
    "kind": "user",
    "methods": {},
    "version": 1
  }
}